:020000040000fa
:080000000001040000000000f3
:020000040000fa
:100200004fc3200000ff2000000188000000000014
:100210000c00070080fd20000100200011000700f5
:10022000000020000000e000020032000000020098
:100230000000000094090200000000000040da0005
:100240000000fe004440a900000020000000e00083
:100250000300320000002000a00188004440a800f4
:100260000000060091018800800078000000eb008b
:1002700015003700e280400032a0b4009101ba00be
:10028000e280400032a0b4009102ba00e280400057
:1002900032a0b4000002eb00472bde00f507b200ed
:1002a000602ce10004003a000059eb008301e900f2
:1002b000fdff3e00040037006128e100010032002c
:1002c0000082eb00040007001101ba000200e00008
:1002d000e8ff3a00000006003159ba008301e90046
:1002e0000c0032002159ba008301e90008003200f5
:1002f0000400e00003003a00e280400032a0b400b5
:10030000f5ff370011d9ba008301e900faff3a007e
:100310008100e800e180400032a0b4000000060047
:10032000889fbe008a9fbe008c1f78009300070044
:100330009a00330003866c006450e1002400320010
:100340006420e100270032006150e1002200320009
:100350006120e100210032008b854200eb07b100f3
:100360000134b800003ab8000804420089844a0009
:10037000013ab8000030b8008880400009014a0006
:100380000400330000004000818048000201490061
:100390008b05e900c909dd0083017000010032000e
:1003a00013002000c814de004814dd004709de00f9
:1003b0001200b200c808de00088470008700070041
:1003c00001f0a1000cf0a70001f0a0007c003700b4
:1003d0006120e1007e0032000801be000200be0084
:1003e000f7ff37006150e100fcff3a00780037006a
:1003f000889fbe008a9fbe008c1f78005f000700a8
:100400006600330003866c006450e1002e00320069
:100410006420e100330032006150e1002f0032001f
:100420006120e1003100320085855500eb07b00006
:1004300009002000080420000500370008044400db
:1004400089844c000a0031000603430087834b0077
:100450000001530081815b00f8ff33000203be00fe
:100460000800a0000804440089844c00f6ff39000d
:10047000c639dd0083017300010032001300200043
:100480008904d1000884d3000998a3000500320034
:100490000800a7000300a0008904d1000884d3004d
:1004a0008b05e8008904d1000884d3000001eb002b
:1004b0000281d2004900070001f0a1000cf0a70062
:1004c00001f0a0003e0037006420e100400032004f
:1004d0000801be000200be00f7ff37006120e10006
:1004e0003b0032006000b800f3ff3700000020003e
:1004f00001f82700f0ff37000001be005d00070093
:100500000470a70003f0a1006509b10016003200d5
:100510000d0035006828e10006003500f0ff2f00cf
:10052000f1ff27000300e00013003b00010028005a
:100530000000050000004000818048008502e900bd
:10054000fcff3a0008003700f88f420002003c0030
:100550008000eb00000005008100d1000080d30086
:100560008502e800fcff3a000300e00002003b00c7
:1005700060001000e0801800000006000004be00cb
:100580003c0007000003be000405be000200be00e0
:1005900038000700844f7500000006000200be000e
:1005a0006450e100050036006420e10002003600de
:1005b0000968a30001003a000800be000160a00025
:1005c0004f0678004f05be004f04be000000060035
:1005d000f0ff2f00f1ff2700f9ff37008100200016
:1005e000618055000b003d000b00200061fe2f00d4
:1005f0000100e1001d00340082817100610164008e
:100600008904d1000884d3000000e800faff3a0012
:1006100071002000610064000300700002006000af
:100620000900320061044400e0844c000988a50000
:10063000050032008b05e8006808e10002003a007e
:100640008904d1000884d300f20f20000258e10091
:1006500005003d00c75ddd00f907b2008980750027
:1006600008007800000006000bf827008b007800d7
:1006700000000500c70ade00f107b200f50fb20066
:1006800008003200e1cf4200020032000170a000f9
:1006900024000500810f70000100320004080500ed
:1006a00044000500810f700002003a0014000500ac
:1006b0008502e9000000400081c04800fcff3b00cb
:1006c0000170a00024000500a210880060108800be
:1006d00071108800000006000de2a9008d20a9001d
:1006e0008d40a9008520a9008540a90000000600d2
:1006f0000ec2bf0061006000000006000cc2bf0017
:1007000066406000e64f500002003a009010800002
:100710000000060090108000f00fb20000000600fc
:10072000800078000cc2bf0066406000e64f5000b9
:1007300001003200f10fb2008110880000000600b5
:100740008c60a90005e1a9008460a90000000600f2
:100750000021ef0011088800200888000000060032
:100760008460a900e7416000c419dd005109200040
:1007700091407800f2c8b30082c0600083c070006e
:100780008000fd0095e0b7008000fd00680060007b
:100790004300de004300dd00c108200091407800e6
:1007a0000134a10080c07000010078008ce0b70027
:1007b000000006008d00a90021e2a9008500a90023
:0407c000000006002f
:020000040000fa
:0200000401f009
:04000000f6ff000007
:020000040000fa
:0200000401f009
:04000400ff7f00007a
:020000040000fa
:0200000401f009
:04000800ffff0000f6
:020000040000fa
:0200000401f009
:04001400ffff0000ea
:020000040000fa
:100008002010000020100000201000002010000028
:100018002010000020100000201000002010000018
:1000280020100000201000002010000078040000bc
:1000380020100000201000002010000020100000f8
:1000480020100000760e0000201000002010000094
:1000580020100000201000002010000020100000d8
:1000680020100000201000002010000020100000c8
:1000780020100000201000002010000020100000b8
:1000880020100000201000002010000020100000a8
:100098002010000020100000201000002010000098
:1000a8002010000020100000201000002010000088
:1000b8002010000020100000201000002010000078
:1000c8002010000020100000201000002010000068
:1000d8002010000020100000201000002010000058
:1000e8002010000020100000201000002010000048
:0800f8002010000020100000a0
:020000040000fa
:100108002010000020100000201000002010000027
:100118002010000020100000201000002010000017
:1001280020100000201000002010000078040000bb
:1001380020100000201000002010000020100000f7
:1001480020100000760e0000201000002010000093
:1001580020100000201000002010000020100000d7
:1001680020100000201000002010000020100000c7
:1001780020100000201000002010000020100000b7
:1001880020100000201000002010000020100000a7
:100198002010000020100000201000002010000097
:1001a8002010000020100000201000002010000087
:1001b8002010000020100000201000002010000077
:1001c8002010000020100000201000002010000067
:1001d8002010000020100000201000002010000057
:1001e8002010000020100000201000002010000047
:0801f80020100000201000009f
:020000040000fa
:1007c4000400fa00204798002e4090000080fb00af
:1007d400000f7800110020000e007800af0407001d
:1007e4000080fa00000006000200fa001100200058
:1007f4000e007800930407001e0078000080fb00c0
:100804000080fa00000006000600fa00000f7800dd
:1008140011079800220798002e0090000000e000c5
:100824000c003200c06080000000e00009003a00c3
:100834001e007800004088001e0090000000400068
:100844000000e800b060880010002000c06088004c
:10085400dd02a900a160800000408000808f50006c
:10086400200036000000eb00a0608800b06080002b
:100874000000e900b0608800b0608000e10f400033
:100884000c003200ddc2bf006140600000c0ea001d
:100894006140600061416000d12d200091407800ea
:1008a400e0cfb30000c0600002407000dde2b7009a
:1008b4000c0037001e007800004088001e009000e5
:1008c400000040000000e800b0608800c0608000c4
:1008d4000000e000020032000000eb00c06088006d
:1008e400dd02a9000080fa0000000600801f7800e5
:1008f4003400f80000002000a00188000000fa0085
:100904008460a900806180000000e80080618800a4
:10091400506180000000e80050618800a060800001
:100924000000e800a06088000080fa003400f900ac
:100934004f007800004006000800fa0020079800e5
:100944003107980090f92f00000f78000200200072
:10095400a34724002e009000be0090006ffe070005
:1009640002002000a34724006cfe0700d2cc2c0018
:10097400c3ec23009dfe0700defe0700100798006d
:100984008c60a9006dff07001e0090000000e900c4
:10099400800078001e0078006cff0700d0ff2f0055
:1009a4006eff07000080fa00000006000000fa0055
:1009b40020802000104888000000eb00d0608800f0
:1009c4000080fa00000006000600fa00000f78001c
:1009d40011079800d16080001e00900080804000c4
:1009e400f00f2000808f5000030034000000eb0063
:1009f4002007980014003700d06080009e0090000b
:100a040001004000d06088000700370011488000d2
:100a14001e00780010407800804878000100e8004b
:100a2400104888001e0fe8001e0090000000e90036
:100a3400100798001e009000e10f4000f3ff3a00f9
:100a440010002000200798002e0090000080fa007b
:100a5400000006000a00fa00a0a0200090407800e0
:100a6400214798000e03070005c9bf00ae4090005f
:100a7400d20207000000e00003003a000000eb008f
:100a840040079800590037000f0307006f02070062
:100a94000000e00003003a008000eb0041079800ea
:100aa4005200370066004700110020008202070050
:100ab4000000e00003003a000000eb00400798004b
:100ac4004a00370078020700be009000500520005d
:100ad400808f500036003a00f10207001100200018
:100ae40060902000020307000000e00003003a00c9
:100af4008000eb00410798003c00370020002000f4
:100b04003403070030488000000fe8001e0078001e
:100b14000000d100000f78009e007800a0a0200003
:100b2400f30207000000e00003003a000000eb00bd
:100b3400400798002d003700e30207004302070036
:100b44000000e00003003a008000eb004107980039
:100b54002600370011002000a0b020005602070034
:100b64000000e00003003a000000eb00400798009a
:100b74001e00370050588000000fe8001e00780067
:100b84000000d100000f78009e007800a0902000a3
:100b9400490207000000e00003003a008000eb0077
:100ba40041079800110037003f0207000d0037008d
:100bb4002000200050588800a090200020079800b2
:100bc400ae00900050c6b300804878002e0090001c
:100bd4008000e80050c6b300804878002000200060
:100be4001e03070010002000400798004e009000ec
:100bf4000080fa00000006000600fa00a0a0200011
:100c04009040780021479800a502070005c9bf005d
:100c1400ae409000690207000000e00003003a00c3
:100c24000000eb002007980036003700a6020700fa
:100c3400060207000000e00003003a008000eb0019
:100c4400210798002f00370011002000a0b02000d9
:100c5400190207000000e00003003a000000eb0066
:100c6400200798002700370050588000000fe80044
:100c74001e0078000000d100000f78009e0078006c
:100c8400a09020000c0207000000e00003003a00de
:100c94008000eb00210798001a00370002020700c9
:100ca4007f020700110020006090200090020700de
:100cb4000000e00003003a000000eb002007980069
:100cc4001000370030488000000fe8001e00780054
:100cd4000000d100000f78009e007800a0a0200042
:100ce400830207000000e00003003a008000eb00ec
:100cf400210798000300370073020700100020004a
:100d0400200798002e0090000080fa0000000600e2
:100d14000a00fa0025ff07006500470011002000c3
:100d2400500407000000e0009c003a002eccbf00f5
:100d3400e046b00012ecb7009e003700409020005f
:100d440061002000470407000000e00006003a00ac
:100d54002eccbf00e046b00012ecb7000000eb0060
:100d640040079800af0037003048800080007800ca
:100d7400a0a020003b0407000000e00006003a00a9
:100d84002eccbf00e046b00012ecb7008000eb00b0
:100d940041079800a3003700110020004090200074
:100da40009ff07000000e00005003a0080c7b30017
:100db40012ecb7000000eb004007980099003700e0
:100dc4001100200050902000fffe07000000e0000a
:100dd40005003a0080c7b30012ecb7008000eb00b6
:100de400410798008f003700a0a0200090407800b1
:100df40041479800ce40900030c6b30080cf5000e9
:100e040033003e0013ff07000000e0001f003a001b
:100e140024ccbf008040780020c8b30000c040004c
:100e2400604798002000200050588800a0b020009f
:100e340021002000e4fe07000000e00003003a0067
:100e44000000eb004007980076003700660047007a
:100e540011002000dcfe07000000e00003003a005f
:100e64008000eb00410798006e00370066004700e1
:100e740011002000d4fe07000000e00047003a0003
:100e84000000eb004007980066003700a0b0200087
:100e940021002000ccfe07000000e00003003a001f
:100ea4008000eb00410798005e0037005058800036
:100eb40080007800a0902000c3fe07000000e0003e
:100ec40036003a000000eb00400798005500370058
:100ed40049ff07000000e0001f003a0024ccbf00d7
:100ee4008040780020c8b30000c0400060479800ec
:100ef4002000200050588800a0b0200021002000cd
:100f0400b1fe07000000e00003003a008000eb009f
:100f14004107980043003700660047001100200095
:100f2400a9fe07000000e00003003a000000eb0007
:100f3400400798003b00370066004700110020007e
:100f4400a1fe07000000e00014003a008000eb005e
:100f54004107980033003700a0b020002100200092
:100f640099fe07000000e00003003a000000eb00d7
:100f7400400798002b00370050588000800078000c
:100f8400a090200090fe07000000e00003003a005b
:100f94008000eb0041079800220037005e4090007b
:100fa4000040e900504798005e409000e14f400047
:100fb40062ff3a001100200020c1200082fe0700d9
:100fc4000000e00006003a002eccbf00e046b0006e
:100fd40012ecb7000000eb00400798001100370046
:100fe40040c6b30012ecb700d1608000208020001e
:100ff400c30307000000e00006003a002eccbf0047
:10100400e046b00012ecb7008000eb004107980006
:101014000400370040c6b30012ecb70010002000f3
:10102400400798004e0090000080fa00000006007f
:101034000800fa000e80e800110020008903070070
:101044000000e00006003a002eccbf00e046b000ed
:1010540012ecb7000000eb0030079800ae00370038
:101064002e4090000080fb00200798002e00900086
:10107400e60f5000650032002e009000e60f50008d
:1010840007003c002e009000e40f50000e003200d8
:101094002e009000e50f5000260032008a00370031
:1010a4002e009000e80f5000380032002e0090000f
:1010b400e80f50003b0035002e009000f40f500064
:1010c40068003200800037006300470011002000f0
:1010d400640307000000e00006003a002eccbf00c5
:1010e400e046b00012ecb7000000eb0030079800b7
:1010f400890037001100200020c120008003070070
:101104000000e00006003a002eccbf00e046b0002c
:1011140012ecb7000000eb00300798007e003700a7
:101124003e409000a6fd07003e40900010ecb70042
:101134007500370000c12000110020007003070073
:101144000000e00006003a002eccbf00e046b000ec
:1011540012ecb7000000eb00300798006e00370077
:101164001100200020c12000650307000000e000fa
:1011740065003a002eccbf00e046b00012ecb70088
:101184000000eb003007980063003700e0fe070022
:101194000000e0005c003a000000eb00300798001b
:1011a4005d00370063004700110020002d03070095
:1011b4000000e00006003a002eccbf00e046b0007c
:1011c40012ecb7000000eb00300798005200370023
:1011d4001100200020c12000490307000000e000a6
:1011e40006003a002eccbf00e046b00012ecb70077
:1011f4000000eb0030079800470037003e409000a5
:101204000080fb00950107003f003700110020001b
:1012140010c120003a0307000000e00006003a0075
:101224002eccbf00e046b00012ecb7000000eb008b
:1012340030079800380037001100200020c120003a
:101244002f0307000000e0002f003a002eccbf005f
:10125400e046b00012ecb7000000eb003007980045
:101264002d0037006300470011002000fd02070035
:101274000000e00006003a002eccbf00e046b000bb
:1012840012ecb7000000eb00300798002200370092
:101294003e4090000080fb00700107001100200018
:1012a40020c12000160307000000e00016003a00e9
:1012b4002eccbf00e046b00012ecb7000000eb00fb
:1012c4003007980014003700e0c6b30012ecb700f2
:1012d4001100200020c12000090307000000e000e5
:1012e40006003a002eccbf00e046b00012ecb70076
:1012f4000000eb0030079800070037000000eb0007
:10130400300798000400370040c6b30012ecb70061
:1013140010002000300798003e0090000080fa0082
:10132400000006000200fa00d902a90030002000e3
:101334004a010700bf020700f026210031a823005c
:101344007dfd070040c6b30012ecb70026fd070080
:1013540010ecb7001900070000003700e0c2bf001e
:10136400614060000004e00005003a0030ff07001f
:1013740012002000110020002003200022fd07009d
:1013840021c120009140780040c6b30080cf5000b6
:1013940005003a000001eb0011002000803e20000f
:1013a40019fd0700edff37000001eb0011002000dc
:1013b400a00f200014fd0700e8ff37000000fa002a
:1013c400a842a800de82a900dea2a900e282a90048
:1013d400e2a2a900c642a800c842a80021e2a900ce
:1013e40021a2a90020c2a90023c2a90023a2a90006
:1013f4002362a9002342a8002322a9002302a900f2
:1014040022e2a90022c2a90022a2a90022c2bf008e
:10141400c041b30022e2b70022c2bf003040b30093
:1014240022e2b7000040eb0024ecb7008038210032
:10143400906188000080fa00000006000000fa00b5
:10144400dbfc07000080fa00000006000200fa003e
:101454000000eb00506188000900370051618000f2
:1014640090618000808f50000500360050c0b300aa
:1014740024ecb7000000eb00000f780007003700f1
:10148400e0c2bf000044b2000004e000f3ff3a00f1
:1014940021e2a80010002000000f78001e00780050
:1014a4000080fa00000006000000fa0021e2a90012
:1014b4000080fa00000006000600fa00000f780021
:1014c40011079800140037000000eb0050618800f9
:1014d400090037005161800090618000808f5000c6
:1014e4000500360020c0b30024ecb7000000eb0078
:1014f400200798001000370020c2bf006140600040
:101504000004e000f3ff3200211180001e00780087
:10151400010878001e8fe8001e0090000000e9001a
:10152400100798001e009000e10f4000e6ff3a000b
:1015340010002000200798002e0090000080fa0080
:10154400000006000200fa0021e2a9000000eb00fe
:10155400506188000900370051618000906180006b
:10156400808f50000500360060c0b30024ecb70043
:101574000000eb00000f780008003700c8c2bf006d
:10158400644060000004e000f3ff320022e2a8009f
:1015940021e2a80010002000000f78001e0078004f
:1015a4000080fa00000006000000fa0021e2a90011
:1015b40022e2a9000080fa00000006000800fa00f8
:1015c40040479800514798000e8fe8001e007800ad
:1015d400ce409000014878001e00e800de409000f4
:1015e40001487800c642a900c842a9000000eb00e7
:1015f40050618800090037005161800090618000cb
:10160400808f50000500360010c0b30024ecb700f2
:101614000000eb00300798001e00370020c2bf0016
:10162400624060000004e000f3ff3a001e009000f6
:10163400201188000000eb00506188000900370089
:101644005161800090618000808f50000500360059
:1016540020c0b30024ecb7008000eb0031079800f1
:101664000c00370020c2bf00614060000004e000ad
:10167400f3ff32002011800010079800c842a80030
:10168400c642a8000040eb0024ecb7001000200084
:10169400300798003e0090000080fa000000060029
:1016a4000000fa00e2a2a8002322a80022a2a800b7
:1016b40021e2a800e282a8002000200045000700e3
:1016c4000080fa00000006000000fa00e282a9008f
:1016d40021e2a900e2a2a90022a2a9002322a900d2
:1016e400200020003b0007000080fa0000000600f4
:1016f4000800fa0010079800210798002800370016
:101704000000eb005061880009003700516180003f
:1017140090618000808f50000500360010c0b30037
:1017240024ecb7000000eb003007980026003700d7
:1017340020c2bf00624060000004e000f3ff3a00f2
:101744001e00900010007800201188001e009000f8
:101754000080e800100798000000eb00506188004a
:10176400090037005161800090618000808f500033
:101774000500360020c0b30024ecb7000000eb00e5
:10178400300798001000370020c2bf00614060009d
:101794000004e000f3ff320020118000000f780005
:1017a4002e0090000000e900200798002e00900011
:1017b400e10f4000d2ff3a000040eb0024ecb700f8
:1017c40010002000300798003e0090000080fa00ce
:1017d400000006000200fa00000f78000f00370036
:1017e40000000000000000000000000000000000f5
:1017f40000000000000000000000000000000000e5
:1018040000000000000000000000000000000000d4
:101814000000000000000000000000001e0fe900ae
:101824001e00e000eeff3a000080fa00000006000f
:101834000200fa00000f780002003700803e20000a
:10184400e4ff07001e0fe9000080eb009e0f10006c
:10185400faff3a000080fa00000006000200fa00d5
:10186400000f78001a003700ddc2bf00614060003d
:1018740000c0ea006140600061416000d12d200099
:1018840091407800e0cfb30000c0600002407000d7
:10189400dde2b700a00f2000e5ff0700ddc2bf00b6
:1018a4006140600000c0ea00614060006141600086
:1018b400d12d200091407800e0cfb30000c060003b
:1018c40002407000dde2b700a00f2000d8ff07003f
:1018d4001e0fe9000080eb009e0f1000e2ff3a00ab
:1018e400a00f2000d2ff07000080fa0000000600cd
:1018f4000600fa0010079800210798001e009000c7
:10190400000f7800040037009e0078000040eb00d0
:10191400804878001e0fe8002e0090000000e900c7
:10192400200798002e009000e10f4000f6ff3a00d7
:101934000080fa00000006000600fa00000f78009c
:1019440011079800220798003200f80090018800df
:101954001109ba003200f9000080fa000000060004
:101964000400fa00000f7800110798003200f80014
:10197400203b8800113b880040042400003b880081
:101984004200f800000e20004220b700500520005d
:10199400303b8800a00a2000303b880061e7a800a3
:1019a400000000000000000061c7bf0001c8b300d0
:1019b400014060000004e000fbff3a004200f9002f
:1019c4003200f9000080fa00000006000600fa0068
:1019d400000f780011079800220798003200f800e1
:1019e400910188000009bb00213b8800123b88005c
:1019f40040002400003b88004200f800000e200054
:101a04004220b70050052000303b8800a00a200087
:101a1400303b880061e7a8000000000000000000df
:101a240061c7bf0001c8b300014060000004e000ca
:101a3400fbff3a004200f9003200f9000080fa008e
:101a4400000006000600fa0010079800210798001d
:101a54000000eb00000f78000a0037001e01900020
:101a64001e0090000080e8001007980001c02f00bd
:101a74001e00780080804000f0072000aeff0700c1
:101a84001e8fe8002e009000000040009e0f5000c2
:101a9400f2ff3c000080fa00000006000600fa0095
:101aa40010079800210798000000eb00000f780051
:101ab4000600370001c02f001e007800808040001f
:101ac400f0072000a6ff07001e8fe8002e009000fc
:101ad400000040009e0f5000f6ff3c000000eb00a9
:101ae400000f78000c00370001c02f001e007800a2
:101af40000814000f10720001e0090009001780052
:101b04001e0090000080e800100798000300780091
:101b1400aeff07001e8fe8002e009000000040007a
:101b24009e0f5000f0ff3c000080fa000000060009
:101b34000200fa00000f7800d1a2a800cda2a900eb
:101b4400f1608000e06080001e017800ddfa07008b
:101b54000080fa00000006000000fa00ddfa070029
:101b64000080fa00000006000400fa00000f78006c
:101b74001107980008003700dcfa07000004e000b1
:101b8400fdff3200dcfa0700804078001e00780078
:101b9400014878001e0fe8001e0090000000e900d4
:101ba400100798001e009000e10f4000f2ff3a0079
:101bb4000080fa00000006000000fa00cbfa0700db
:101bc4000004e000fdff3200cbfa07000000fb0038
:101bd4000080fa00000006000200fa000e007800ff
:101be40021002000e0ff07001e0078000080fa00ba
:101bf400000006000400fa00000f780011079800a6
:101c04000a003700701080004900de0061006000a7
:101c14000004e000fbff3a001e007800104078004a
:101c24000080fb001e0fe800bcfa07001e009000b5
:101c34000000e900100798001e009000e10f40002a
:101c4400f0ff3a000080fa00000006000200fa00eb
:101c5400004f7800701080004900de0061006000d1
:101c64000004e000fbff3a001e00fb00abfa070093
:101c74000080fa00000006000200fa00000f78005d
:101c84000e00780021002000daff07000080fa002f
:101c9400000006000200fa00000f78000000eb00cc
:101ca40010618800c0b0200060608800c0b02000cf
:101cb400706088001e007800674060006740600024
:101cc4004401dd008109200091407800f0c8b30090
:101cd40000c060000240700098e0b7008d20a800aa
:101ce4000080fa000000060000a0fe003600f800a4
:101cf400849fbe00869fbe00881f78003400f800d1
:101d040004002000a40188000200fa000f0037003c
:101d14008520a9006860800077fa0700004c7800ed
:101d24000800e80060608800106180000000e8009e
:101d34001061880061608000c0c02000808f500066
:101d440002003a00c0b020006060880085c0bf0077
:101d5400624060000004e000edff3a000080fa00f9
:101d64003400f9004f0478004f03be004f02be0058
:101d74003600f9000080fe00004006000200fa0070
:101d84007160800011407800004f78000100e80085
:101d940070608800106180000000e9001061880014
:101da40071608000c0c02000808f500002003a00a3
:101db400c0b02000706088001e00fb000080fa00a4
:101dc400000006000400fa00000f780011079800d4
:101dd4001000370072608000924078001e00780086
:101de400014878001e0fe8000200e80070608800d7
:101df400106180000000e9001061880071608000bb
:101e0400c0c02000808f500002003a00c0b0200003
:101e1400706088001e0090000000e9001007980020
:101e24001e009000e10f4000eaff3a000080fa0033
:101e3400000006000000fa00dca2a800dc82a80072
:101e4400d8a2a900d882a900f00f2000901688001b
:101e5400c0168000f000b300c01688000080fa00ad
:101e6400000006000600fa001007980021079800f9
:101e7400f00f200090168800c0168000f000b30018
:101e8400c016880015003700e0c2bf006140600042
:101e94000004e000fcff3a00dca2a90000000000fe
:101ea40000000000d01680004400dd00004f7800e0
:101eb40000cfb3009e406000a01680006f40600019
:101ec40080c070001e009000014878001e00900041
:101ed4000000e80010079800dca2a8002e00900083
:101ee4000000e900200798002e009000e10f400058
:101ef400e5ff3a00100020000080fa000000060010
:101f04000600fa001007980021079800000f20002f
:101f140090168800c1168000000f20000080600029
:101f2400c016880017003700e0c2bf00624060009e
:101f34000004e000fcff3a00dc82a8001e009000d0
:101f4400104078000080fb00000f78001e00900015
:101f54000000e800100798001e007800b016880002
:101f6400e116800000ff2f00808060001e007800d2
:101f74004400de006f00600000807000e0168800fe
:101f8400dc82a9002e0090000000e90020079800e0
:101f94002e009000e10f4000e3ff3a00dc82a8002d
:0c1fa400100020000080fa000000060081
:020000040000fa
:101fb0001c0c0000080000000200000000df5d00b3
:101fc000f7000000000000000c0b000004010000fe
:101fd00000000000300c00000200000002000000c1
:101fe000000000002c0c00000400000000000000b5
:101ff000100c00000c000000020000000020640033
:1020000000000000000000000000000000080000c8
:102010000c03000000000000240c00000800000079
:1020200002000000000000000000000000000000ae
:10203000320c000002000000000000000000000060
:020000040000fa
:042040000000fe009e
:020000040000fa
:0200000400fffb
:10f8000000000000000000000000000000000000f8
:10f8100000000000000000000000000000000000e8
:10f8200000000000000000000000000000000000d8
:10f8300000000000000000000000000000000000c8
:10f8400000000000000000000000000000000000b8
:10f8500000000000000000000000000000000000a8
:10f860000000000000000000000000000000000098
:10f870000000000000000000000000000000000088
:00000001FF
