:020000040000fa
:080000000001040000000000f3
:020000040000fa
:100200004fc8200000ff200000018800000000000f
:100210000c00070060bb2100010020001100070056
:10022000000020000000e000020032000000020098
:10023000000000008c0c0200000000000040da000a
:100240000000fe004440a900200020000000e00063
:100250000300320000002000a00188004440a800f4
:100260000000060091018800800078000000eb008b
:1002700015003700e280400032a0b4009101ba00be
:10028000e280400032a0b4009102ba00e280400057
:1002900032a0b4000002eb00472bde00f507b200ed
:1002a000602ce10004003a000059eb008301e900f2
:1002b000fdff3e00040037006128e100010032002c
:1002c0000082eb00040007001101ba000200e00008
:1002d000e8ff3a00000006003159ba008301e90046
:1002e0000c0032002159ba008301e90008003200f5
:1002f0000400e00003003a00e280400032a0b400b5
:10030000f5ff370011d9ba008301e900faff3a007e
:100310008100e800e180400032a0b4000000060047
:10032000889fbe008a9fbe00010578000100e000a2
:100330000400350008003c000000e000200032000e
:100340000500370060001000e080180002003b004c
:1003500001f02c001a0037000004be006011b80044
:100360006b0920000982cf00020039000882cf000b
:100370000441b000694252000e00320008003b0008
:1003800082817100610164008904d1000884d30076
:100390008b05e8000442e800f9ff3a000500370049
:1003a0000804440089844c008b05e9000442e900fc
:1003b000fbff3a00150107000af0a70001f0a000ba
:1003c0004f05be004f04be0000000600889fbe001f
:1003d0008a9fbe008c1f780032010700390133006c
:1003e00003866c006450e100240032006420e100c8
:1003f000270032006150e100220032006120e1005c
:10040000210032008b854200eb07b1000134b800b7
:10041000003ab8000804420089844a00013ab80052
:100420000030b8008880400009014a000400330011
:100430000000400081804800020149008b05e9006e
:10044000c909dd00830170000100320013002000a3
:10045000c814de004814dd004709de001200b200b7
:10046000c808de0008847000e800070001f0a10061
:100470000cf0a70001f0a0001b0137006120e10093
:100480001d0132000801be000200be00f7ff370068
:100490006150e100fcff3a00170137000001be0087
:1004a000180107000470a70003f0a1006509b1005e
:1004b000160032000d0035006828e1000600350006
:1004c000f0ff2f00f1ff27000300e00013003b00c6
:1004d0000100280000000500000040008180480065
:1004e0008502e900fcff3a0008003700f88f42005f
:1004f00002003c008000eb00000005008100d100fc
:100500000080d3008502e800fcff3a000300e00011
:1005100002003b0060001000e080180000000600b0
:10052000889fbe008a9fbe008c1f7800dd000700f8
:10053000e400330003866c006450e1002e003200ba
:100540006420e100330032006150e1002f003200ee
:100550006120e1003100320085855500eb07b000d5
:1005600009002000080420000500370008044400aa
:1005700089844c000a0031000603430087834b0046
:100580000001530081815b00f8ff33000203be00cd
:100590000800a0000804440089844c00f6ff3900dc
:1005a000c639dd0083017300010032001300200012
:1005b0008904d1000884d3000998a3000500320003
:1005c0000800a7000300a0008904d1000884d3001c
:1005d0008b05e8008904d1000884d3000001eb00fa
:1005e0000281d2008900070001f0a1000cf0a700f1
:1005f00001f0a000bc0037006420e100be00320022
:100600000801be000200be00f7ff37006120e100d4
:10061000b90032006000b800f3ff3700000020008e
:1006200001f82700f0ff37000001be00b500070009
:100630000470a70003f0a10003f8a30013003a0020
:100640006509b10010003200090035006928e10099
:1006500002003500010028000000050000004000f5
:10066000818048008502e900fcff3a000000060096
:10067000f88f4200050035008100d1000080d300d2
:100680008502e800fcff3a00000006008000eb0055
:100690000000050003f0a200889fbe008a9fbe00f4
:1006a0008c1f78007f000700860033006450e10053
:1006b0004f0032006420e1005200320003826c00df
:1006c00007003b000905d0000306d000820f54004c
:1006d0000c065d000200390002003200890178003a
:1006e000030678008582550004003d000003fd00ec
:1006f0008103fd008502ea008b854200840f7200b1
:1007000002003b0060001000e08018006011b8009b
:100710000005eb007a28e1000a00390006007800a5
:10072000c75ddd00f707b200878075002d00370038
:10073000828171000a017800610560008180d1002a
:100740000080d3008502e900f9ff3b000604400069
:100750008784480002003b0060041400e0841c0011
:100760000988a300070032008a817100828171002c
:10077000610164008904d1000884d3008b05e8007e
:10078000170037000978a30013003a000b00e000bf
:10079000130034008b05e9000804440089844c00f0
:1007a0000a4474000978a3000d003a000b00e00031
:1007b000070034008b05e9000804440089844c00dc
:1007c00001003a000b0020000978a300f7ff320077
:1007d0000001eb0002003700828171000a017800fd
:1007e0000a0007000cf0a70001f0a0003e0037004f
:1007f0006420e10002003a00838f6c003e00330069
:100800000801be000200be00370037008100200052
:10081000618055000b003d000b00200061fe2f00a1
:100820000100e1001d00340082817100610164005b
:100830008904d1000884d3000000e800faff3a00e0
:10084000710020006100640003007000020060007d
:100850000900320061044400e0844c000988a500ce
:10086000050032008b05e8006808e10002003a004c
:100870008904d1000884d300f20f20000258e1005f
:1008800005003d00c75ddd00f907b20089807500f5
:1008900008007800000006000bf827008b007800a5
:1008a000000005000004be00160007000003be00a3
:1008b0000405be000200be0012000700844f750050
:1008c000000006000200be006450e1000500360092
:1008d0006420e100020036000968a30001003a002c
:1008e0000800be000160a0004f0678004f05be0062
:1008f0004f04be0000000600f0ff2f00f1ff2700ac
:10090000f9ff3700c70ade00f107b200f50fb200a9
:1009100008003200e1cf4200020032000170a00066
:1009200024000500810f700001003200040805005a
:1009300044000500810f700002003a001400050019
:100940008502e9000000400081c04800fcff3b0038
:100950000170a0002400050023e1a900f2ff22009d
:1009600002016000120988004b00de006140600057
:100970004300dd0032122000124178000234a10051
:10098000004171000200780023e1b70021098800ce
:1009900000000600200e8800310e8800430e8800fb
:1009a000540e8800020e88000000060090e0a900a6
:1009b0009160a90088e0a9008960a9000000eb000f
:1009c000000e8800400e8800500e880000000600cf
:1009d00061416100a31c2000934178000304a10041
:1009e00082c171008001fd00cae1b7008001fd00f5
:1009f00000004000421d2000013079000000060088
:100a00008c60a90005e1a9008460a900000006002f
:100a10000021ef001108880020088800000006006f
:100a20008460a900e7416000c419dd00510920007d
:100a300091407800f2c8b30082c0600083c07000ab
:100a40008000fd0095e0b7008000fd0068006000b8
:100a50004300de004300dd00c10820009140780023
:100a60000134a10080c07000010078008ce0b70064
:100a7000000006008500a900e74160008109200010
:100a80009140780082cfb30082c0600083c07000c4
:100a90008000fd0098e0b7008000fd006800600065
:100aa0004300de00d1082000914078000104a1003d
:100ab00080c07000010078008de0b70000000600e3
:100ac0008d00a90021e2a9008500a9000000060010
:020000040000fa
:0200000401f009
:04000000f6ff000007
:020000040000fa
:0200000401f009
:04000400ff7f00007a
:020000040000fa
:0200000401f009
:04000800ffff0000f6
:020000040000fa
:0200000401f009
:04001400ffff0000ea
:020000040000fa
:10000800021c0000021c0000021c0000021c000070
:10001800021c0000021c0000021c0000021c000060
:10002800021c0000021c0000021c00006a050000ff
:10003800021c0000021c0000021c0000021c000040
:10004800a4130000021c0000021c0000021c000097
:10005800021c0000021c0000021c0000021c000020
:10006800021c0000021c0000021c0000021c000010
:10007800021c0000021c0000021c0000021c000000
:10008800021c0000021c0000021c0000021c0000f0
:10009800021c0000021c0000021c0000021c0000e0
:1000a800021c0000021c0000021c0000021c0000d0
:1000b800021c0000021c0000021c0000021c0000c0
:1000c800021c0000021c0000021c0000021c0000b0
:1000d800021c0000021c0000021c0000021c0000a0
:1000e800021c0000021c0000021c0000021c000090
:0800f800021c0000021c0000c4
:020000040000fa
:10010800021c0000021c0000021c0000021c00006f
:10011800021c0000021c0000021c0000021c00005f
:10012800021c0000021c0000021c00006a050000fe
:10013800021c0000021c0000021c0000021c00003f
:10014800a4130000021c0000021c0000021c000096
:10015800021c0000021c0000021c0000021c00001f
:10016800021c0000021c0000021c0000021c00000f
:10017800021c0000021c0000021c0000021c0000ff
:10018800021c0000021c0000021c0000021c0000ef
:10019800021c0000021c0000021c0000021c0000df
:1001a800021c0000021c0000021c0000021c0000cf
:1001b800021c0000021c0000021c0000021c0000bf
:1001c800021c0000021c0000021c0000021c0000af
:1001d800021c0000021c0000021c0000021c00009f
:1001e800021c0000021c0000021c0000021c00008f
:0801f800021c0000021c0000c3
:020000040000fa
:040ad0002000000002
:020000040000fa
:100ad400801f78003400f80000002000a001880086
:100ae4000000fa008460a90010002000b0628800b1
:100af400e06380000000e800e0638800c0628000da
:100b04000000e800c062880030098000706388003b
:100b14000080fa003400f9004f007800004006001d
:100b24000000fa0050638000616380003061880037
:100b3400416188000040eb009c0a07005061880076
:100b440010c0b300990a07006061880050c0b30068
:100b5400960a07007061880060c0b300930a07001a
:100b64008061880070c0b300900a0700906188001b
:100b74000080fa00000006000200fa00881f7800d6
:100b84000000eb00000f7800090037001e04780015
:100b94001e007800850a07000001780088004400e0
:100ba40040c3200000804000020878001e0fe800c7
:100bb400700020009e0f1000f4ff34004f047800f2
:100bc4000080fa00000006000000fa0021628000a4
:100bd4000000eb0043090700316280001000200090
:100be400400907000080fa00000006000000fa0037
:100bf40040628000c00a07000080fa00000006007e
:100c04000000fa00506280006140600061416000b1
:100c1400a12c200091407800e0cfb30000c0600018
:100c240002407000cae2b700506280000000d100a8
:100c3400614060006140600000414000a12c200040
:100c440091407800d0cfb30000c060000240700033
:100c5400cae2b700506280004200de0061406000da
:100c6400614060004301dd00a12c20009140780028
:100c740070cfb30000c0600002407000cae2b70049
:100c8400506280004300de0061406000614060000b
:100c94004401dd00a12c200091407800f0ceb30087
:100ca40000c0600002407000cae2b70050628000d9
:100cb4004400de0061406000614060004501dd00e9
:100cc400a12c200091407800f0cdb30000c060005a
:100cd40002407000cae2b700506280004500de00a6
:100ce40061406000614060004601dd00a12c2000ed
:100cf40091407800f0cbb30000c060000240700067
:100d0400cae2b700506280004600de006140600025
:100d1400c700dd00cac2bf000074a100014070001a
:100d2400cae2b700506280004700de006140600004
:100d340061416000b12c200091407800e0cfb30005
:100d440000c0600002407000cbe2b7006062800027
:100d54006140600061416000612c20009140780096
:100d6400e0cfb30000c0600002407000c6e2b700ec
:100d7400606280000000d10061406000614060005a
:100d840000414000612c200091407800d0cfb30096
:100d940000c0600002407000c6e2b70060628000dc
:100da4004200de0061406000614060004301dd00fc
:100db400612c20009140780070cfb30000c0600027
:100dc40002407000c6e2b700606280004300de00ab
:100dd40061406000614060004401dd00612c20003e
:100de40091407800f0ceb30000c060000240700073
:100df400c6e2b700606280004400de00614060002b
:100e0400614060004501dd00612c200091407800c4
:100e1400f0cdb30000c0600002407000c6e2b7002d
:100e2400606280004500de00614060006140600057
:100e34004601dd00612c200091407800f0cbb30026
:100e440000c0600002407000c6e2b700606280002b
:100e54004600de0061406000c700dd00c6c2bf007e
:100e64000074a10001407000c6e2b7006062800017
:100e74004700de006140600061416000712c200089
:100e840091407800e0cfb30000c0600002407000e1
:100e9400c7e2b700c8c2bf00614060000080fb0029
:100ea4006101600051628000e0ff2f00008060005b
:100eb4000200700050628800c8c2bf000080fb00be
:100ec4000000d100614060000080fb006100600010
:100ed4000001400051628000d0ff2f0000806000bc
:100ee4000200700050628800c8c2bf000080fb008e
:100ef4004300de00614060000080fb006100600090
:100f04004201dd0051628000b0ff2f0000806000cc
:100f14000200700050628800c8c2bf000080fb005d
:100f24004400de00614060000080fb00610060005e
:100f34004301dd005162800070ff2f0000806000db
:100f44000200700050628800c8c2bf000080fb002d
:100f54004500de00614060000080fb00610060002d
:100f64004401dd0051628000f0fe2f00008060002b
:100f74000200700050628800c8c2bf000080fb00fd
:100f84004600de00614060000080fb0061006000fc
:100f94004501dd0051628000f0fd2f0000806000fb
:100fa4000200700050628800c8c2bf000080fb00cd
:100fb4004700de000080fb00610060004601dd00a8
:100fc40051628000f0fb2f0000806000020070007e
:100fd40050628800c9c2bf00614060000080fb000d
:100fe400610060004701dd0051628000f0f72f00ce
:100ff4000080600002007000506288000080fa00e7
:10100400000006000000fa00706280006140600089
:1010140061416000c12d200091407800e0cfb30011
:1010240000c0600002407000dce2b7007062800023
:101034000000d10061406000614060000041400058
:10104400c12d200091407800d0cfb30000c06000d3
:1010540002407000dce2b700706280004200de00f3
:1010640061406000614060004201dd00c12d20004c
:1010740091407800b0cfb30000c06000024070001f
:10108400dce2b700706280004300de006140600073
:10109400614060004301dd00c12d200091407800d3
:1010a40070cfb30000c0600002407000dce2b70003
:1010b400706280004400de006140600061406000b6
:1010c4004401dd00c12d200091407800f0ceb30032
:1010d40000c0600002407000dce2b7007062800073
:1010e4004500de0061406000614060004501dd00b4
:1010f400c12d200091407800f0cdb30000c0600005
:1011040002407000dce2b700706280004600de003e
:101114006140600061416000612d200091407800d1
:10112400e0cfb30000c0600002407000d6e2b70018
:10113400706280004700de00614060006140600032
:1011440000414000612d200091407800d0cfb300d1
:1011540000c0600002407000d6e2b70070628000f8
:101164004800de0061406000614060004201dd0033
:10117400612d200091407800b0cfb30000c0600022
:1011840002407000d6e2b700706280004900de00c1
:1011940061406000614060004301dd00612d20007a
:1011a4009140780070cfb30000c06000024070002e
:1011b400d6e2b70080628000614060006141600057
:1011c400812d200091407800e0cfb30000c0600082
:1011d40002407000d8e2b700806280000000d100b5
:1011e400614060006140600000414000812d2000aa
:1011f40091407800d0cfb30000c06000024070007e
:10120400d8e2b700806280004200de0061406000e6
:10121400614060004201dd00812d20009140780092
:10122400b0cfb30000c0600002407000d8e2b70045
:10123400806280004300de00614060006140600025
:101244004301dd00812d20009140780070cfb30070
:1012540000c0600002407000d8e2b70080628000e5
:101264004400de0061406000614060004401dd0034
:10127400812d200091407800f0ceb30000c06000c2
:1012840002407000d8e2b700806280004500de00b2
:1012940061406000614060004501dd00812d200057
:1012a40091407800f0cdb30000c0600002407000af
:1012b400d8e2b700806280004600de006140600032
:1012c40061416000212d200091407800e0cfb300ff
:1012d40000c0600002407000d2e2b700806280006b
:1012e4004700de0061406000614060000041400052
:1012f400212d200091407800d0cfb30000c06000c1
:1013040002407000d2e2b700806280004800de0034
:1013140061406000614060004201dd00212d200039
:1013240091407800b0cfb30000c06000024070006c
:10133400d2e2b700806280004900de0061406000b4
:10134400614060004301dd00212d200091407800c0
:1013540070cfb30000c0600002407000d2e2b7005a
:10136400dac2bf00614060000080fb0061016000e0
:1013740071628000e0ff2f000080600002007000b6
:1013840070628800dac2bf000080fb000000d10058
:10139400614060000080fb006100600000014000cb
:1013a40071628000d0ff2f00008060000200700096
:1013b40070628800dac2bf000080fb004200de00d9
:1013c400614060000080fb00610060004201dd00bc
:1013d40071628000b0ff2f00008060000200700086
:1013e40070628800dac2bf000080fb004300de00a8
:1013f400614060000080fb00610060004301dd008b
:101404007162800070ff2f00008060000200700095
:1014140070628800dac2bf000080fb004400de0076
:10142400614060000080fb00610060004401dd0059
:1014340071628000f0fe2f000080600002007000e6
:1014440070628800dac2bf000080fb004500de0045
:10145400614060000080fb00610060004501dd0028
:1014640071628000f0fd2f000080600002007000b7
:1014740070628800d4c2bf00614060000080fb003d
:10148400610060004601dd0071628000f0fb2f0006
:10149400008060000200700070628800d4c2bf0047
:1014a4000080fb000000d100614060000080fb0070
:1014b400610060004701dd0071628000f0f72f00d9
:1014c400008060000200700070628800d4c2bf0017
:1014d4000080fb004200de00614060000080fb00f1
:1014e400610060004801dd0071628000f0ef2f00b0
:1014f400008060000200700070628800d4c2bf00e7
:101504000080fb004300de00614060000080fb00bf
:10151400610060004901dd0071628000f0df2f008e
:101524000080600002007000706288000080fa0091
:10153400000006000400fa00c06080000000e00023
:1015440004003400c06080008000780000618000e6
:101554001e030700e06080000000e0000400340087
:10156400e0608000800078001061800017030700ad
:1015740080ccbf000080fb00100798001e00900084
:10158400e10f5000090032001e009000e20f5000ed
:10159400080032001e0090000000e000010032004c
:1015a400050037005efd07000300370072fd0700e9
:1015b4000100370092fd070081ccbf000080fb00d2
:1015c400000f78001e007800e10f5000090032007f
:1015d4001e007800e20f5000080032001e00780060
:1015e4000000e000010032000500370076fd07002e
:1015f400030037007dfd07000100370081fe07006e
:10160400b06080000000e00004003400b06080009e
:1016140080007800f0608000ff020700d060800046
:101624000000e00004003400d060800080007800f6
:1016340020618000f80207001100200030c520005e
:10164400f502070031030700c90207000080fa0011
:10165400000006000400fa000000eb00b0608800ff
:101664000000eb00f06088000000eb00c060880020
:101674000000eb00006188000000eb00d0608800ef
:101684000000eb00206188000000eb00e0608800af
:101694000000eb0010618800701680004d00de0031
:1016a4006340600080ecb700001780004400de0057
:1016b4006340600081ecb70080ccbf000080fb0079
:1016c400100798001e009000e10f50000e00320039
:1016d4001e009000e20f5000110032001e00900026
:1016e4000000e00001003200180037005b0707002b
:1016f400e8060700e0002000b060880060c2200017
:10170400f06088001b003700540707000001200028
:10171400b060880040c32000f060880015003700e6
:1017240020002000b0608800a0c42000f060880081
:1017340040002000c0608800a0c420000061880030
:101744000080eb00401588000a00370020c0b30079
:1017540080ecb70020002000b0608800a0c4200006
:10176400f060880040002000c0608800a0c4200011
:101774000061880081ccbf000080fb00000f78006e
:101784001e007800e10f50000d0032001e007800aa
:10179400e20f5000100032001e0078000000e0004c
:1017a4000100320015003700330607004000200016
:1017b400e060880040c420001061880019003700f0
:1017c400bc07070020002000e060880080c42000df
:1017d400106188001300370020002000d0608800ca
:1017e400e0c420002061880040002000e060880000
:1017f400e0c42000106188000a00370020c0b30054
:1018040081ecb70020002000d0608800e0c42000f4
:101814002061880040002000e0608800e0c42000cf
:1018240010618800f026210031a82300db010700a5
:1018340040002000010207003eff07000080fa007c
:10184400000006000400fa003a020700110020001c
:101854000e0078005d0207001e4078008080fb00c7
:1018640020032000808f5000010032001600370052
:101874001100200000c820006702070011002000aa
:1018840010c8200064020700b1608000d0608000ae
:1018940000804000100798000e80e800210020001e
:1018a4005d020700c1608000e060800000804000ad
:1018b400100798000e80e80021002000560207005f
:1018c4005d030700020037001e407800fa0007009d
:1018d4008e0307000080fa00000006000200fa00f0
:1018e400140207000e00e800110020003702070070
:1018f4001e4090008080fb0060092000808f500013
:1019040001003200010037000aff07000080fa00de
:10191400000006000200fa00d902a900d000070066
:1019240052ecb7004bff0700200020001805070009
:1019340000003700e06280000000e000090032008f
:10194400c0ff0700fbfe07000000eb00e062880018
:101954001200200011002000200320006d00070069
:101964000a003700f06280000000e0000700320047
:10197400daff07000000eb00f0628800120020008c
:10198400110020002003200062000700b0628000e4
:101994000000e0000600320080ccbf000004e0003c
:1019a40001003a004c0607000000eb00b06288001a
:1019b40053ccbf000080fb00000f7800100720000c
:1019c4009e007800808f50003e00320010072000f7
:1019d4009e007800808f50000d003c00e00620003f
:1019e4009e007800808f50002c00320000072000f9
:1019f4009e007800808f50002d00320040062000a9
:101a04009e007800808f50001f003200c9ff37000d
:101a1400400720009e007800808f5000380032007c
:101a2400400720009e007800808f500005003c0095
:101a3400300720009e007800808f50002b00320079
:101a4400bcff3700900720009e007800808f500074
:101a540021003200900720009e007800808f500003
:101a6400b4ff3500d00720009e007800808f50001e
:101a74001e003200e00720009e007800808f500096
:101a84001f003200abff37000001eb001100200003
:101a9400803e20001f000700a6ff37000001eb0076
:101aa40011002000a00f20001a000700a1ff37003a
:101ab4000001eb0021002000a00f2000150007000a
:101ac4009cff37000001eb0031002000a00f200034
:101ad4001000070097ff37000001eb0041002000d1
:101ae400a00f20000b00070092ff37000001eb005d
:101af40051002000a00f2000060007008dff3700d2
:101b04000001eb0061002000a00f2000010007008d
:101b140088ff37000600fa00000f780011079800cc
:101b2400220798002e0090000000e0000c00320014
:101b3400306380000000e00009003a001e007800d5
:101b4400806088001e009000000040000000e80053
:101b5400206388001000200030638800dd02a900a3
:101b6400c162800080608000808f500020003600b9
:101b74000000eb00c0628800206380000000e900e0
:101b84002063880020638000e10f40000c003200d5
:101b9400ddc2bf006140600000c0ea006140600037
:101ba40061416000d12d200091407800e0cfb30066
:101bb40000c0600002407000dde2b7000c00370096
:101bc4001e007800806088001e0090000000400025
:101bd4000000e80020638800306380000000e0001b
:101be400020032000000eb0030638800dd02a9002f
:101bf4000080fa00000006000200fa008c60a900d0
:101c04007efb070090608000a1608000020020003d
:101c1400a3472400ecf9070002002000a347240096
:101c2400e9f90700d2cc2c00c3ec23003bfa0700ef
:101c340019fa0700000f78000000eb00b06288007a
:101c44001e00e90080007800406380006ffb0700fd
:101c5400d0ff2f0071fb07000080fa00000006008f
:101c64000200fa0001c02f00f0072000130020003a
:101c74000e017800c60407001e0078000080fb00f7
:101c84000080fa00000006000400fa0020479800d3
:101c94002e4090000080fb00000f780001c02f0050
:101ca400f0072000130020000e017800d004070084
:101cb4000080fa00000006001c00fa00881f78006b
:101cc400604f98006e4890000080fb00500f980011
:101cd4005e089000e50f50003f0032005e0890005f
:101ce400e50f500011003c005e089000e10f500029
:101cf400220032005e089000e10f500004003c0016
:101d04005e0890000000e0001500320097003700e4
:101d14005e089000e30f50001f0032005e08900040
:101d2400e40f500023003200900037005e0890005a
:101d3400e70f5000340032005e089000e70f5000b7
:101d44002c0035005e089000e90f50003600320088
:101d54005e089000ea0f50004f0032008300370005
:101d64000040eb00004f7800110020000e007800c6
:101d740029010700300207008200370010c0b300b9
:101d8400004f7800110020000e00780022010700a7
:101d9400290207007b00370030c0b300004f7800f1
:101da400110020000e0078001b010700220207002a
:101db40074003700110020000e00780003010700b2
:101dc4001e407800b0ff07001b0207001e40780089
:101dd40052ecb7006b003700a1ff070052ecb700cc
:101de40020c52000110020000b010700120207008b
:101df4006400370011002000805628000601070007
:101e04000d0207005f003700110020000e0078006b
:101e1400ee000700080207001e4078000080fb0067
:101e2400db030700570037000e80e800c1002000e4
:101e3400e60007000002070070ff2f00f7fa070012
:101e44000e80e8001000be0090608800a160880049
:101e54000e80e800b00090002000900092608000a6
:101e6400a3608000adf90700eef90700d062880096
:101e74000e80e800d0009000400090009260800046
:101e8400a3608000a5f90700e6f907001064880044
:101e940059ff07003b00370090608000a16080007c
:101ea4000e81e8000089be00d86280006140b9005c
:101eb4001af90700300f9800410f98000800e0005d
:101ec40007003d0002002000037824003e08900033
:101ed400ce089000eff90700300f9800410f9800ea
:101ee40092608000a36080003e089000ce089000bd
:101ef40035f907000e81e8002001980031019800af
:101f0400186480006140b90004f90700100f9800bc
:101f1400210f98000800e00007003d0002002000a7
:101f2400037824001e089000ae089000d9f9070039
:101f3400100f9800210f980092608000a360800029
:101f44001e089000ae0890001ff907000e81e800fb
:101f540040019800510198000e80e800c100200063
:101f6400ad000700b401070006003700e0c6b30067
:101f740053ecb700b00107000000eb00000f98001d
:101f84000200370010002000000f98000e08900097
:101f94004f0478000080fa00000006000400fa00f4
:101fa400008fbe0001082000008020009d03070070
:101fb40001082000009020009a0307000108200077
:101fc40000a02000970307000108200000b02000b3
:101fd400940307000000eb003060880000802000bc
:101fe400006088000000eb004060880000a0200032
:101ff400106088000000eb00006388000000eb0024
:102004001063880000c62000206088000040eb00b8
:102014000aecb7000000eb0060608800340207009f
:10202400950207001e00be0090608800a160880031
:10203400f1fe07000080fa00000006000400fa0028
:10204400000f780010002000606088001e007800f7
:10205400100798001e009000e30f50002300320088
:102064001e009000e30f50000a003c001e00900088
:10207400e10f5000170032001e009000e10f5000e5
:1020840017003c001e0090000000e0000e0032002b
:10209400240037001e009000e50f500019003200a4
:1020a4001e009000e50f5000130035001e00900044
:1020b400e60f5000160032001e009000e70f50009b
:1020c400160032001700370080ff2f007060880070
:1020d4001400370090ff2f00706088001100370053
:1020e400a0ff2f00706088000e003700b0ff2f00a3
:1020f400706088000b003700c0ff2f0070608800fc
:1021040008003700d0ff2f007060880005003700fa
:10211400e0ff2f0070608800020037000080eb00b1
:10212400706088007060800051fa07000080fa0037
:10213400000006000000fa00306080000000e000ab
:10214400050032000000eb003060880000802000b1
:102154000060880004003700100020003060880010
:1021640000902000006088000080fa000000060053
:102174000000fa00406080000000e0000900320026
:102184000000eb004060880000a020001060880080
:102194000000eb000063880000c620002060880077
:1021a40008003700100020004060880000b02000c4
:1021b400106088000000eb001063880020c6200037
:1021c400206088000080fa00000006000400fa0085
:1021d400000f7800110798000700370002608000a4
:1021e400924078001e007800014878001e0fe80035
:1021f4000200e800006088001e0090000000e90072
:10220400100798001e009000e10f4000f3ff3a0011
:102214000080fa00000006000400fa00000f7800b5
:102224001107980010003700116080001e0078002c
:1022340010407800804878000100e80010608800b1
:102244001e007800904078000accbf0000c0400017
:102254000aecb7001e0fe80021608000110078002e
:102264000000e800800878001e0090000000e900eb
:10227400100798001e009000e10f4000eaff3a00aa
:102284000080fa00000006000800fa001007980019
:10229400210798000040eb00004f78002e009000ca
:1022a4000000e90020079800060037001e00900097
:1022b400104078001e4f40001e0090000000e8000f
:1022c400100798002e0090000000e90020079800f5
:1022d4002e009000e10f4000f4ff3a001e00900031
:1022e400104078009e4f5000030032000000eb00c5
:1022f40030079800020037001000200030079800d3
:102304003e0090000080fa00000006000000fa0081
:10231400116080000accbf00804878000100e8000a
:102324001060880021608000110078000000e8003f
:10233400800878000040eb000aecb7000080fa0047
:10234400000006000c00fa002202070050052000dd
:102354004007980068004700110020003102070080
:102364000000e00003003a000000eb005007980072
:102374004e00370021020700810107000000e00041
:1023840003003a000000eb005007980047003700b4
:102394006600470011002000940107000000e000df
:1023a40003003a000000eb00500798003f0037009c
:1023b400306080000000e000030032000080200054
:1023c40010079800020037000090200010079800c2
:1023d4003e0090000000e800200798002e009000c6
:1023e4000000d10020079800ae0090001e0090006d
:1023f4007e0107000000e00003003a000000eb004b
:10240400500798002900370074010700be009000af
:102414001e0090009cff07000000e00021003a002d
:1024240010c7b30053ecb700200020003007980019
:10243400680f470031c52000914078001e007800e5
:10244400014878009e00e80053ccbf008048780023
:10245400e00107006600470011002000f1010700b9
:102464000000e00003003a000000eb005007980071
:102474000e0037006800470011002000e901070042
:102484000000e00003003a000000eb005007980051
:1024940006003700d90107000000eb005007980040
:1024a4000200370010002000500798005e009000e2
:1024b4000080fa00000006000c00fa004060800072
:1024c4000000e0000500320000a020001007980082
:1024d40000638000400798000400370000b020002b
:1024e400100798001063800040079800b9010700a6
:1024f4006800470011002000ca0107000000e00046
:1025040006003a0076ccbf008047b00053ecb70019
:102514000000eb0050079800440037004e00900084
:102524000000e800300798003e0090000000d10051
:1025340030079800be0090001e009000b90107000b
:102544000000e00006003a0076ccbf008047b000ef
:1025540053ecb7000000eb0050079800330037003d
:10256400a6010700060107000000e00003003a008e
:102574000000eb00500798002c003700680047006b
:1025840011002000190107000000e00003003a00d8
:102594000000eb00500798002400370030608000f2
:1025a4000000e000030032000080200010079800c3
:1025b4000200370000902000100798004e009000a1
:1025c4000000e800300798003e0090000000d100b1
:1025d40030079800be0090001e0090000301070021
:1025e4000000e00003003a000000eb0050079800f0
:1025f4000e003700f900070044000700ce009000e9
:102604001e00900020ff07000000e00005003a00d3
:1026140010c7b30053ecb7000000eb00500798005c
:102624000200370010002000500798005e00900060
:102634000080fa00000006000a00fa0011002000e1
:1026440030c52000f4fe070030ff0700c8fe070075
:10265400406080000000e0000500320000a020007f
:1026640010079800006380003007980004003700ca
:1026740000b0200010079800106380003007980015
:10268400540107006600470011002000650107009f
:102694000000e00006003a0076ccbf008047b0009e
:1026a40053ecb7000000eb0040079800140037001b
:1026b4003e0090000000e800200798002e009000e3
:1026c4000000d10020079800ae0090001e0090008a
:1026d400540107000000e00006003a0076ccbf0079
:1026e4008047b00053ecb7000000eb0040079800af
:1026f4000300370041010700100020004007980044
:102704004e0090000080fa00000006000000fa006d
:1027140022c2bf0001c8b300014060000004e00011
:1027240006003a00d4000700606080000000e0006a
:102734000200320070608000cdf807000080fa00cb
:102744000000060000a0fe003600f800849fbe00d2
:10275400869fbe003400f80004002000a401880015
:102764000600fa0064004700110020009f000700e3
:102774008500a90064004700100798001e0090001f
:102784009040780052ccbf0080cf5000040032004b
:102794001e00900010407800e14f400022003a00f3
:1027a400ce00070070ff2f00b1f807001e00900054
:1027b4000000e8009040780030c6b30080cf50009d
:1027c4000d003e00dffe07000000e00005003a00b7
:1027d40076ccbf00e046b00053ecb700cbff070057
:1027e4001100370010002000e06288000000eb00b8
:1027f400f06288000c0037002fff07000000e000a3
:1028040005003a0076ccbf00e046b00053ecb700b8
:10281400beff0700040037000000eb00e062880000
:1028240010002000f06288000080fa003400f900f3
:102834004f03be004f02be003600f9000080fe00c8
:10284400004006000600fa0020c2bf00614060009c
:102854000004e00003003a000000eb0020079800a9
:10286400200037000e80e800110020005f00070000
:102874000e8fe8001e0078009040780052ccbf0014
:1028840080cf5000070032001e00e800104078009e
:10289400e14f4000030032000000eb0020079800e5
:1028a400100037008d000700a6fe07000000e000be
:1028b40007003a0076ccbf00e046b00053ecb70006
:1028c40092ff07000000eb00200798000500370086
:1028d40018fe070040c6b30053ecb70010002000f8
:1028e400200798002e0090000080fa0000000600e7
:1028f4000000fa00a842a800de02a900de22a90016
:10290400e202a900e222a900c642a800c842a80027
:1029140021e2a90021a2a90020c2a90023c2a90082
:1029240023a2a9002362a9002342a8002322a9000c
:102934002302a90022e2a90022c2a90022a2a9001e
:1029440022c2bf00c041b30022e2b70022c2bf00ce
:102954003040b30022e2b7000040eb0076ecb70051
:1029640080382100106488000080fa00000006000e
:102974000000fa0051f807000080fa000000060089
:102984000200fa000000eb00e06388000900370051
:10299400e163800010648000808f500005003600e1
:1029a40050c0b30076ecb7000000eb00000f7800d5
:1029b40007003700e0c2bf000044b2000004e0009a
:1029c400f3ff3a0021e2a80010002000000f780075
:1029d4001e0078000080fa00000006000000fa00e3
:1029e40021e2a9000080fa00000006000600fa00b7
:1029f400000f780011079800140037000000eb0066
:102a0400e063880009003700e163800010648000ff
:102a1400808f50000500360020c0b30076ecb7006c
:102a24000000eb00200798001000370020c2bf0010
:102a3400614060000004e000f3ff320021118000d7
:102a44001e007800010878001e8fe8001e00900028
:102a54000000e900100798001e009000e10f4000fc
:102a6400e6ff3a0010002000200798002e00900096
:102a74000080fa00000006000200fa0021e2a9002a
:102a84000000eb00e063880009003700e163800088
:102a940010648000808f50000500360060c0b300d1
:102aa40076ecb7000000eb00000f78000800370058
:102ab400c8c2bf00644060000004e000f3ff3200bd
:102ac40022e2a80021e2a80010002000000f7800f4
:102ad4001e0078000080fa00000006000000fa00e2
:102ae40021e2a90022e2a9000080fa000000060009
:102af4000800fa0040479800514798000e8fe800fc
:102b04001e007800ce409000014878001e00e800c6
:102b1400de40900001487800c642a900c842a900de
:102b24000000eb00e063880009003700e1638000e7
:102b340010648000808f50000500360010c0b30080
:102b440076ecb7000000eb00300798001e00370059
:102b540020c2bf00624060000004e000f3ff3a00be
:102b64001e009000201188000000eb00e063880044
:102b740009003700e163800010648000808f5000fa
:102b84000500360020c0b30076ecb7008000eb00ef
:102b9400310798000c00370020c2bf00614060007c
:102ba4000004e000f3ff32002011800010079800b9
:102bb400c842a800c642a8000040eb0076ecb7006b
:102bc40010002000300798003e0090000080fa00ba
:102bd400000006000000fa00e222a8002322a80058
:102be40022a2a80021e2a800e202a80020002000fe
:102bf400450007000080fa00000006000000fa000b
:102c0400e202a90021e2a900e222a90022a2a9006d
:102c14002322a900200020003b0007000080fa00c6
:102c2400000006000800fa00100798002107980029
:102c3400280037000000eb00e0638800090037003b
:102c4400e163800010648000808f5000050036002e
:102c540010c0b30076ecb7000000eb00300798001a
:102c64002600370020c2bf00624060000004e0007c
:102c7400f3ff3a001e009000100078002011880035
:102c84001e0090000080e800100798000000eb0090
:102c9400e063880009003700e1638000106480006d
:102ca400808f50000500360020c0b30076ecb700da
:102cb4000000eb00300798001000370020c2bf006e
:102cc400614060000004e000f3ff32002011800046
:102cd400000f78002e0090000000e9002007980003
:102ce4002e009000e10f4000d2ff3a000040eb00bc
:102cf40076ecb70010002000300798003e009000ea
:102d04000080fa00000006000200fa00000f7800bc
:102d14000f00370000000000000000000000000069
:102d2400000000000000000000000000000000009f
:102d3400000000000000000000000000000000008f
:102d4400000000000000000000000000000000007f
:102d54001e0fe9001e00e000eeff3a000080fa00ba
:102d6400000006000200fa00000f7800020037009d
:102d7400803e2000e4ff07001e0fe9000080eb0006
:102d84009e0f1000faff3a000080fa0000000600cf
:102d94000200fa00000f78001a003700ddc2bf00fd
:102da4006140600000c0ea00614060006141600071
:102db400d12d200091407800e0cfb30000c0600026
:102dc40002407000dde2b700d0072000e5ff0700f5
:102dd400ddc2bf006140600000c0ea0061406000e5
:102de40061416000d12d200091407800e0cfb30014
:102df40000c0600002407000dde2b700d007200090
:102e0400d8ff07001e0fe9000080eb009e0f1000a2
:102e1400e2ff3a00a00f2000d2ff07000080fa0072
:102e2400000006000600fa00100798002107980029
:102e34001e009000000f7800040037009e00780008
:102e44000040eb00804878001e0fe8002e00900040
:102e54000000e900200798002e009000e10f4000d8
:102e6400f6ff3a000080fa00000006000000fa00b5
:102e74004200f800000e20004220b7005005200058
:102e8400303b8800a00a2000303b880061e7a8009e
:102e9400000000000000000061c7bf0001c8b300cb
:102ea400014060000004e000fbff3a004200f9002a
:102eb4000080fa00000006000600fa00000f780007
:102ec4001107980022079800900188009208bb001f
:102ed4000080fa00000006000600fa00000f7800e7
:102ee4001107980022079800900188001109ba0080
:102ef4000080fa00000006000200fa00000f7800cb
:102f04001e007800103b88000040eb0064e7b70027
:102f140010042400003b8800d4ff07000080fa005e
:102f2400000006000400fa00000f78001107980062
:102f34000001eb00920188003108bb003198bb000e
:102f44003108bb003198bb003108bb003198bb008d
:102f54003108bb001188bb0010002400003b88002e
:102f6400c2ff07000080fa00000006000400fa0017
:102f7400000f7800110798000001eb00920188000f
:102f84009018ba009088ba000080fa000000060089
:102f94000800fa00000f7800110798002207980033
:102fa400330798000a0037002e0190002e0090008d
:102fb4000080e800200798009e0090001e00780022
:102fc400c5ff07001e0090000080e800100798006d
:102fd4003e0090000000e900300798003e00900099
:102fe400e10f4000f0ff3a000080fa000000060004
:102ff4000800fa00000f78001107980022079800d3
:1030040033079800140037001e00780064e7b70007
:103014001e009000103b880040042400003b880000
:1030240092ff07002e0190002e0090000080e8001f
:10303400200798009e0090001e0078009eff070065
:1030440040002400003b880088ff07001e00900019
:103054000080e800100798003e0090000000e9009e
:10306400300798003e009000e10f4000e6ff3a0070
:103074000080fa00000006000600fa0000002a00a2
:103084002007980080fd2000100798000000eb0046
:10309400000f7800d842a900d802a900dc42a80099
:1030a400dc02a800d862a900d882a900dc62a800ca
:1030b400dc82a8001e0278009e0190002e01900080
:1030c4008000eb00f01f200031f607000080fa00ba
:1030d400000006000000fa0033f607000080fa0042
:1030e400000006000c00fa00300798004107980021
:1030f400ce00900000402000808f50000900340072
:103104000000eb00200798000000eb001007980077
:103114000000eb00000f78000000eb00400798006f
:103124001c0037004e0090000000e00009003a0047
:103134000000eb0020079800100020001007980002
:103144000000eb00000f78000000eb00400798003f
:10315400100037004e0090000000e000070034002b
:10316400100020002007980010002000100798008d
:103174004e009000000f7800060037000000eb00be
:103184002007980010002000100798004e009000bf
:10319400000fea003e009000500798005e00900087
:1031a4000000e000040032005e009000e10f5000d7
:1031b40019003200300037002e009000614060009a
:1031c400614060004201dd00c12d20009140780083
:1031d400b0cfb30000c0600002407000dce2b70072
:1031e4001e0090006140600061416000c12d20001c
:1031f40091407800e0cfb30000c06000024070004e
:10320400dce2b7009e0078000041eb0010002000d3
:10321400eef50700180037002e00900061406000b2
:10322400614060004301dd00c12d20009140780021
:1032340070cfb30000c0600002407000dce2b70051
:103244001e00900061406000614060004401dd00a8
:10325400c12d200091407800f0ceb30000c0600082
:1032640002407000dce2b7009e0078000041eb00f1
:1032740030002000d5f507007eccbf000004e0003c
:10328400020032004e009000650007000080fa0042
:10329400000006000000fa000000eb00300988007e
:1032a4000080eb00400988000000200001f82300a2
:1032b40090638800a1638800a882a800a8a2a8003f
:1032c400f1e72f0030f02d00a2f5070041000700c0
:1032d4000080fa00000006000400fa007063800019
:1032e4001007980081638000f0ff2e00808f50004b
:1032f4000e0036009e009000e0ff2000808f5000fa
:103304000a003e001e009000506388006063800045
:103314000000e80060638800816380001e00900064
:1033240001005000000f780018003700816380000e
:10333400e0ff2000808f50000e003e009e009000b1
:10334400f0ff2e00808f50000a0036001e0090000f
:1033540050638800606380000000e90060638800b7
:10336400816380001e00900001005000000f78006f
:10337400060037001e0090005063880080638000c0
:103384009e00900000805000000f78001e00900006
:10339400806388001e0078000080fa0000000600a8
:1033a4000400fa00008fbe001e00be0050638800b7
:1033b4006163880050638000300988005063800096
:1033c4008063880030098000706388000080fa0000
:1033d400000006000000fa006000b800f0ff0700db
:1033e4000080fa00000006000400fa00008fbe000e
:1033f4001e00be0090638800a163880010c0b30063
:103404007eecb7000080fa00000006000000fa001d
:103414000040eb007eecb7000080fa0000000600dc
:103424000200fa00000f78001e007800cf80de0052
:10343400baf3070092638000a3638000e2f30700fd
:1034440015f40700800078003009800000804000f7
:10345400300988000080fa00000006000000fa002d
:103464000000eb0000158800a1e2a900a1a2a900b8
:10347400112a200091407800c0cfb30000c0600042
:10348400a1e2b700012a20009140780000ceb300e9
:1034940000c07000a0e2b700a062a900a042a90089
:1034a4000000eb0010158800a3c2bf007f4060003d
:1034b400a3e2b700a342a900312a2000914078007a
:1034c400c0cfb30000c06000a3e2b700212a2000ef
:1034d4009140780030ccb30000c06000a2e2b70095
:1034e400a222a900a202a9000000eb002015880076
:1034f400a5c2bf00f041b300a5e2b700a4e2a90051
:10350400412a20009140780000ccb30000c0600044
:10351400f040b300a4e2b7000000eb0030158800cf
:10352400a7c2bf00f043b200a7e2b700a7a2a90058
:10353400a782a900712a20009140780000cfb3002f
:1035440000c06000a7e2b700a6c2bf00f043b2000b
:10355400a6e2b700a6a2a900a682a900612a2000bb
:103564009140780000cfb30000c06000a6e2b7002d
:103574000080eb0040158800a802a900a822a90039
:10358400a862a900a882a900a8a2a900a8c2a900ab
:10359400a8e2a900a902a9000000eb0050158800c8
:1035a400a1e2a8000080fa00000006000200fa0070
:1035b400004f7800a022a80010c0b3009e4f100056
:1035c400010034001e4fe8001e4078006f40600088
:1035d4006f416000612a20009140780000cfb30061
:1035e40000c0600002407000a6e2b700a0c2bf00a5
:1035f400614060000004e000fcff32000014800021
:103604000080fa00000006000200fa00dac2bf00df
:10361400704060000004e000030032000000eb0092
:10362400000f78000200370010002000000f78001f
:103634001e0078000080fa00000006000400fa0072
:103644001007980000012000000f78001e00900071
:10365400c200dd00c0ff2300008060001007980056
:10366400d622a9000b003700d642a8001e00900005
:103674000000e00002003d00d602a800010037006f
:10368400d602a9001e009000000040001007980018
:10369400d642a9001e0fe9000080eb009e0f100027
:1036a400f1ff3a00d622a800d602a9000080fa0051
:1036b400000006000000fa00dc42a900d202a900c2
:1036c400d222a900d242a900d882a800d842a900d7
:1036d400d802a900d602a900d622a800d642a90081
:1036e4000080fa00000006000000fa00dc42a90095
:1036f4000080fa00000006000200fa00000f7800c3
:10370400f07f20009e0f1000040034000000eb0046
:10371400000f7800dc42a900090037001e00e00019
:1037240002003a00dc42a900050037001e00e00058
:1037340002003400dc42a80001003700dc42a8008b
:10374400f07f20001e004000bcff07007eccbf00bd
:103754000004e000020032001e00780030ff070081
:083764000080fa0000000600dd
:020000040000fa
:10376c00160c00003c000000000000007e0c000065
:10377c000200000002000000000000006a0c0000c3
:10378c000c00000000000000520c000018000000ab
:10379c000200000000646400000000000000e8006b
:1037ac00030000000000000000000000000000000a
:1037bc000099ff0000080000160400000000000043
:1037cc00800c00000200000002000000000000005d
:1037dc00760c000008000000020000000000000051
:1037ec000000000000000000820c0000020000003d
:0837fc000000000000000000c5
:020000040000fa
:043804000000fe00c2
:020000040000fa
:0200000400fffb
:04f800000300000001
:00000001FF
